:020000040000FA
:1000000000040020810A000015070000610A0000BA
:100010001F07000029070000330700000000000050
:10002000000000000000000000000000A50A000021
:100030003D070000000000004707000051070000D6
:100040005B070000650700006F07000079070000EC
:10005000830700008D07000097070000A10700003C
:10006000AB070000B5070000BF070000C90700008C
:10007000D3070000DD070000E7070000F1070000DC
:10008000FB070000050800000F0800001908000029
:10009000230800002D080000370800004108000078
:1000A0004B080000550800005F08000069080000C8
:1000B000730800007D080000870800009108000018
:1000C0009B080000A5080000AF080000B908000068
:1000D000C3080000CD080000D7080000E1080000B8
:1000E000EB080000F5080000FF0800000909000007
:1000F000130900001D090000270900003109000054
:100100003B0900001FB500F003F88DE80F001FBD8C
:1001100000F0ACBC40F6FC7108684FF01022401CA7
:1001200008D00868401C09D00868401C04D0086842
:1001300000F037BA9069F5E79069F9E7704770B554
:100140000B46010B184400F6FF70040B4FF0805073
:100150000022090303692403406943431D1B104621
:1001600000F048FA29462046BDE8704000F042BA47
:10017000F0B54FF6FF734FF4B4751A466E1E11E0DA
:10018000A94201D3344600E00C46091B30F8027B3B
:10019000641E3B441A44F9D19CB204EB134394B25D
:1001A00004EB12420029EBD198B200EB134002EBB2
:1001B000124140EA0140F0BDF34992B00446D1E952
:1001C0000001CDE91001FF224021684600F0F4FB58
:1001D00094E80F008DE80F00684610A902E004C8FB
:1001E00041F8042D8842FAD110216846FFF7C0FF7C
:1001F0001090AA208DF8440000F099F9FFF78AFFCB
:1002000040F6FC7420684FF01025401C0FD0206889
:1002100010226946803000F078F92068401C08D030
:100220002068082210A900F070F900F061F9A869AF
:10023000EEE7A869F5E74FF080500369406940F6A2
:10024000FC71434308684FF01022401C06D0086838
:1002500000F58050834203D2092070479069F7E788
:100260000868401C04D00868401C03D00020704778
:100270009069F9E70420704770B504460068C34DE3
:10028000072876D2DFE800F033041929631E250021
:10029000D4E9026564682946304600F062F92A46CE
:1002A0002146304600F031F9AA002146304600F0E0
:1002B00057FB002800D0032070BD00F009FC4FF46C
:1002C000805007E0201D00F040F90028F4D100F034
:1002D000FFFB60682860002070BD241D94E80700C3
:1002E000920000F03DFB0028F6D00E2070BDFFF715
:1002F000A2FF0028FAD1D4E901034FF0805100EBAE
:10030000830208694D69684382420ED840F6F8704E
:1003100005684FF010226D1C09D0056805EB8305B8
:100320000B6949694B439D4203D9092070BD55694A
:10033000F4E70168491C03D00068401C02D003E0C8
:100340005069FAE70F2070BD2046FFF735FFFFF731
:1003500072FF0028F7D1201D00F0F7F80028F2D135
:1003600060680028F0D100F0E2F8FFF7D3FE00F05B
:10037000BFF8072070BD10B50C46182802D0012028
:10038000086010BD2068FFF777FF206010BD41684E
:10039000054609B1012700E0002740F6F8742068FF
:1003A0004FF01026401C2BD02068AA68920000F065
:1003B000D7FA38B3A86881002068401C27D020688D
:1003C000FFF7BDFED7B12068401C22D026684FF051
:1003D0008050AC686D68016942695143A9420DD9EA
:1003E000016940694143A14208D92146304600F0E5
:1003F000B8F822462946304600F087F800F078F831
:100400007069D2E700F093F8FFF784FEF6E77069B1
:10041000D6E77669DBE740F6FC7420684FF01026DB
:10042000401C23D02068401C0CD02068401C1FD0EA
:100430002568206805F18005401C1BD027683879A5
:10044000AA2819D040F6F8700168491C42D001680A
:10045000491C45D00168491C3ED001680968491C07
:100460003ED00168491C39D000683EE0B069DAE747
:10047000B569DEE7B769E2E710212846FFF778FEA5
:100480003968814222D12068401C05D0D4F8001080
:1004900001F18002C03107E0B169F9E730B108CA63
:1004A00051F8040D984201D1012000E000208A4259
:1004B000F4D158B1286810B1042803D0FEE72846CB
:1004C000FFF765FF3149686808600EE0FFF722FE1C
:1004D00000F00EF87169BBE77169BFE7706904E06D
:1004E0004FF480500168491C01D000F0CBFAFEE7C0
:1004F000BFF34F8F26480168264A01F4E06111439B
:100500000160BFF34F8F00BFFDE72DE9F0411746B3
:100510000D460646002406E03046296800F054F8EF
:10052000641C2D1D361DBC42F6D3BDE8F08140F69B
:10053000FC700168491C04D0D0F800004FF48051D1
:10054000FDE54FF010208069F8E74FF080510A690F
:10055000496900684A43824201D810207047002050
:10056000704770B50C4605464FF4806608E0284693
:1005700000F017F8B44205D3A4F5806405F5805562
:10058000002CF4D170BD0000F40A0000000000202F
:100590000CED00E00400FA05144801680029FCD0C5
:1005A0007047134A0221116010490B68002BFCD0E0
:1005B0000F4B1B1D186008680028FCD0002010603D
:1005C00008680028FCD07047094B10B501221A605A
:1005D000064A1468002CFCD0016010680028FCD08A
:1005E0000020186010680028FCD010BD00E4014015
:1005F00004E5014070B50C46054600F073F810B9EB
:1006000000F07EF828B121462846BDE8704000F091
:1006100007B821462846BDE8704000F037B8000012
:100620007FB5002200920192029203920A0B000B06
:100630006946012302440AE0440900F01F0651F80C
:10064000245003FA06F6354341F82450401C8242F8
:10065000F2D80D490868009A10430860081D016827
:10066000019A1143016000F03DF800280AD00649C4
:1006700010310868029A10430860091D0868039A3F
:10068000104308607FBD00000006004030B50F4CED
:10069000002200BF04EB0213D3F800582DB9D3F8A1
:1006A000045815B9D3F808581DB1521C082AF1D3C3
:1006B00030BD082AFCD204EB0212C2F80008C3F8CD
:1006C00004180220C3F8080830BD000000E0014013
:1006D0004FF08050D0F83001082801D0002070473A
:1006E000012070474FF08050D0F83011062905D016
:1006F000D0F83001401C01D0002070470120704725
:100700004FF08050D0F830010A2801D00020704707
:100710000120704708208F490968095808471020B0
:100720008C4909680958084714208A4909680958FA
:100730000847182087490968095808473020854923
:100740000968095808473820824909680958084744
:100750003C20804909680958084740207D490968BC
:100760000958084744207B49096809580847482028
:1007700078490968095808474C207649096809589A
:10078000084750207349096809580847542071499F
:1007900009680958084758206E49096809580847E8
:1007A0005C206C4909680958084760206949096854
:1007B00009580847642067490968095808476820AC
:1007C00064490968095808476C2062490968095852
:1007D000084770205F4909680958084774205D4937
:1007E00009680958084778205A490968095808478C
:1007F0007C205849096809580847802055490968EC
:10080000095808478420534909680958084788202F
:1008100050490968095808478C204E490968095809
:10082000084790204B4909680958084794204949CE
:10083000096809580847982046490968095808472F
:100840009C204449096809580847A0204149096883
:1008500009580847A4203F49096809580847A820B3
:100860003C49096809580847AC203A4909680958C1
:100870000847B0203749096809580847B420354966
:10088000096809580847B8203249096809580847D3
:10089000BC203049096809580847C0202D4909681B
:1008A00009580847C4202B49096809580847C82037
:1008B0002849096809580847CC2026490968095879
:1008C0000847D0202349096809580847D4202149FE
:1008D000096809580847D8201E4909680958084777
:1008E000DC201C49096809580847E02019490968B3
:1008F00009580847E4201749096809580847E820BB
:100900001449096809580847EC2012490968095830
:100910000847F0200F49096809580847F4200D4995
:10092000096809580847F8200A490968095808471A
:10093000FC2008490968095808475FF48070054998
:10094000096809580847000003480449024A034B54
:100950007047000000000020000B0000000B0000AA
:1009600040EA010310B59B070FD1042A0DD310C82C
:1009700008C9121F9C42F8D020BA19BA884201D97E
:10098000012010BD4FF0FF3010BD1AB1D30703D0C6
:10099000521C07E0002010BD10F8013B11F8014B7C
:1009A0001B1B07D110F8013B11F8014B1B1B01D198
:1009B000921EF1D1184610BD02F0FF0343EA032254
:1009C00042EA024200F005B87047704770474FF0A6
:1009D00000020429C0F0128010F0030C00F01B800C
:1009E000CCF1040CBCF1020F18BF00F8012BA8BF1A
:1009F00020F8022BA1EB0C0100F00DB85FEAC17CDE
:100A000024BF00F8012B00F8012B48BF00F8012B90
:100A100070474FF0000200B51346944696462039C1
:100A200022BFA0E80C50A0E80C50B1F12001BFF4A7
:100A3000F7AF090728BFA0E80C5048BF0CC05DF80D
:100A400004EB890028BF40F8042B08BF704748BF5B
:100A500020F8022B11F0804F18BF00F8012B7047CF
:100A6000014B1B68DB6818470000002009480A4951
:100A70007047FFF7FBFFFFF745FB00BD20BFFDE719
:100A8000064B1847064A1060016881F308884068E1
:100A900000470000000B0000000B000017040000DE
:100AA000000000201EF0040F0CBFEFF30881EFF3ED
:100AB0000981886902380078182803D100E0000015
:100AC000074A1047074A12682C3212681047000084
:100AD00000B5054B1B68054A9B58984700BD0000B0
:100AE0007703000000000020F00A0000040000006E
:100AF000001000000000000000FFFFFF0090D00386
:1010000000000420BD120000E5120000E7120000FD
:10101000E9120000EB120000ED12000000000000D9
:101020000000000000000000000000005146010028
:10103000F11200000000000071460100F5120000EE
:101040008DDB000015240400F1DB00005DDD0000F5
:10105000F7120000F7120000E5400100B9DE0000C1
:10106000F7120000F712000031E40000F712000050
:10107000F7120000B5DC0000F7120000F7120000C4
:10108000F712000071470100F7120000F71200008C
:10109000F7120000F7120000F7120000F71200002C
:1010A000F7120000F7120000F7120000F71200001C
:1010B000F7120000F712000000000000000000001E
:1010C000F7120000F7120000F7120000F7120000FC
:1010D00015520400F7120000F7120000F71200008A
:1010E000F7120000F7120000356C04000000000049
:1010F00000000000F712000000000000F7120000DE
:1011000000000000000000000000000000000000DF
:1011100000000000000000000000000000000000CF
:1011200000000000000000000000000000000000BF
:1011300000000000000000000000000000000000AF
:10114000000000000000000000000000000000009F
:10115000000000000000000000000000000000008F
:10116000000000000000000000000000000000007F
:10117000000000000000000000000000000000006F
:10118000000000000000000000000000000000005F
:10119000000000000000000000000000000000004F
:1011A000000000000000000000000000000000003F
:1011B000000000000000000000000000000000002F
:1011C000000000000000000000000000000000001F
:1011D000000000000000000000000000000000000F
:1011E00000000000000000000000000000000000FF
:1011F00000000000000000000000000000000000EF
:1012000010B5054C237833B9044B13B10448AFF340
:1012100000800123237010BD18040020000000008E
:1012200098D4040008B5034B1BB103490348AFF33E
:10123000008008BD000000001C04002098D40400B9
:10124000A3F5803A704700BF174B002B08BF134B24
:101250009D46FFF7F5FF00218B460F461348144AC1
:10126000121A45F027FF0E4B002B00D098470D4B6C
:10127000002B00D098470020002104000D000D48ED
:10128000002802D00C48AFF3008045F0B9FE2000E2
:1012900029000EF0BBF845F08DFE00BF00000800ED
:1012A00000000000000000000000042018040020DE
:1012B000C8D0002000000000000000000649074AD6
:1012C000074B9B1A03DD043BC858D050FBDC00F0F1
:1012D0006DFEFFF7B9FF0000CCD504000800002028
:1012E00018040020FEE7FEE7FEE7FEE7FEE7FEE764
:1012F000FEE7FEE7FEE7FEE77047000007B5044B98
:101300000093044A802300F032F803B05DF804FB38
:1013100019130000350400202DE9F84388461446CF
:10132000B2B10F4B0F4E0325002743F001092246AF
:1013300008EB070100200EF037FA0744241A48B9D9
:1013400033782BB14FF47A40C847013D02D1357054
:10135000BDE8F88301233370002CE8D1F8E700BF23
:10136000209004003404002070470EF051BAF0B50C
:1013700095B01D46164608460C460BF0DBFE1A9B40
:101380000D93CDE9086500252B46082205A92046C6
:101390000A958DF82C500C950BF0E9FE079B0293F3
:1013A000069B03939DF814308DF8115003F003024F
:1013B000012A1DD1BDF81420059DC3F3C203C2F359
:1013C00083168DF81030B20008230EA920460BF0CA
:1013D000CEFEC5F3952508AB0093324602AB0EA9AD
:1013E000284600F0C9FC20460BF0A8FE15B0F0BD61
:1013F000022AF8D1BDF81650C3F3C203C5F389150C
:101400008DF810300827082D2E4628BF08263B46A9
:1014100032460EA920460BF0AAFEAD1B08AB02AA6D
:1014200031460EA8374400F00BFD002DEBD1DAE772
:1014300008B5FFF79AFF0448042100F0E1FB034BD5
:1014400001225A7108BD00BFB4D504000800002075
:10145000037813F0040216D003F00303012B03D02A
:10146000022B09D0012070470A6800880232C0F3BD
:10147000831002440A60F5E70B684288023303EBED
:1014800092130B60EEE71046704700002DE9F04F15
:10149000044685B0861C00200F4615460BF070F8F8
:1014A000454801683960D0E90132134401335B1AC1
:1014B000824600F21C4700F5836900F21448B342EB
:1014C0001BD30020002D72D004F00F039B0143F0CA
:1014D000050363F30F00DAF80020DAF80830134050
:1014E000033316444AF823000020CAF800600BF0CA
:1014F00049F8012005B0BDE8F08F012138460BF016
:1015000022F948460BF03AF940460BF037F9DAF881
:101510000400DAF808B0009000EA0B0003300AEB90
:1015200080006946FFF794FF009B50BB0BEA030263
:101530000AEB820203F1020CD2680192013303EA42
:101540000B0B0AEB8B0B02F00302012ADBF80C10E9
:10155000CDF800C023D0022A16D0834640460BF0B7
:1015600010F910B1009BCAF80430594638460BF008
:10157000EAF8DAE901231344DAF8002001339B1A70
:101580009DE70BEA0300C9E7BDF80630C3F38913F2
:1015900003334FEA114B0CEB93030093DEE7BDF8E6
:1015A0000430C3F383134FEA114B6344F5E7A405FA
:1015B00044F006008FE700BF8805002030B50A4BD5
:1015C0000A4A0B49D21AD20800239A4201D10520B7
:1015D00006E031F823500468A54202D103600020E0
:1015E00030BD0133F1E700BFBCD404009CD504003A
:1015F000100300202DE9F84F224B2348FF229A6068
:101600000022C3F81824C3E90022C3F8142483F885
:1016100020240BF048FD814688B91C481C4E1D4C07
:10162000DFF87CA00BF0B1FEA41BE4084D46A542F8
:1016300008D10023184A19481946A3421BD148462D
:10164000BDE8F88F4FF00008474606EBC50BBD42DA
:101650000AD056F83710DBF80000142246F0D2F812
:101660000028C8BF08F101080137BC42EFD12AF8B1
:1016700025800135DBE720F8231042F8041B0133F5
:10168000DBE700BF880500209CD504006C900400B7
:10169000BCD404009CD50400800300201203002069
:1016A0001003002007B5019031B9019A064B53F899
:1016B000320003B05DF804FB01A8FFF77FFF0028AC
:1016C000F3D00020F5E700BFBCD40400094B01397A
:1016D00003EBC000032909D8DFE801F00A02040681
:1016E00004207047007970474079704700207047A8
:1016F00002207047BCD4040030B5124C00EB40000F
:1017000054F8215002FA00F3072202FA00F06B406D
:101710000D4A03406B40C3F3821044F8213002EBC2
:101720008101C3F3C202824238BF0246C3F34220A2
:10173000824203F0070338BF0246934238BF134684
:101740004B8030BD800300201003002037B5154BBF
:1017500093F8203404460BB918B90024204603B08E
:1017600030BD46F047F80130009001230E486A462C
:1017700001A90BF018FE05460028EED12146009A7B
:10178000019845F06FFCDDE900231344064803F897
:10179000015C00990BF03FFE009903480BF054FEEA
:1017A000019CDBE7880500206C900400034BD3E923
:1017B0000030C31A58425841704700BF88050020C6
:1017C0002DE9FF47FFF7F2FF0646002840F01A8197
:1017D0008D4DC5F81804BFF34F8F6B68AC6800934C
:1017E0002340033305EB83006946FFF731FE009B7E
:1017F00018B1D5F81824002A69D004EA0302991C0C
:10180000013305EB8202234005EB8303D268DB68DA
:10181000029302F00303022B019200916AD1BDF8FA
:1018200006307A489DF80460C3F38918B8F1500F68
:10183000C14628BF4FF0500969F38F1309F1080121
:10184000ADF806300BF047FCC6F3C2060746002889
:1018500000F0BF800BF06EFC0023082201A938467F
:101860000BF07BFC009924EA01020132B9EB820FF4
:101870004FEA820337D95FFA89F983B32140DCB29A
:10188000A9EB040903315FFA89FAA146604C05EB24
:10189000810108234A4638460BF05FFC34B109F158
:1018A00008035246214638460BF057FC009B08F1CE
:1018B000030803EB98030093D5F81834002B52D19A
:1018C000D5F81044DFF85C914FF0070870E02A6803
:1018D0009A4285D86A60304604B0BDE8F0874C492A
:1018E0001C469A46D5E70C40E11C08234A4605EB06
:1018F0008101D8E7012B6CD1BDF804604348C6F3E1
:101900008311062928BF062161F389160231890057
:10191000ADF804600BF0DFFBC6F3C20607460028F3
:1019200057D00BF007FC0023082201A938460BF022
:1019300014FC4FF00008BDF80420C2F383124FEAF4
:101940008803904503F10803B6D200994A1C214050
:101950000331009205EB8101042238460BF0FDFBB8
:1019600008F10108E7E738460BF0E8FBFFF71EFF38
:1019700080F00100C6B2AEE7E3685A79B2B11B79D4
:10198000BDF8081003EB430259F8211008FA02F3DE
:10199000052E03EA010323FA02F308BF0326B3422C
:1019A00004D3236839461B6820469847E3681C68BF
:1019B000002CE1D138460BF0C1FB20460AF0E0FDD7
:1019C000D5F818340BB9009B6B6000200AF0DAFDE3
:1019D000CCE7D5F8104474B90E4B5B88012BC5D900
:1019E0000D4B0E480E49C01AC008000440F002001A
:1019F00000F066F8BAE7236820469B689847E368DA
:101A00001C68E8E7002666E7880500209CD50400EE
:101A10009405002038030020BCD404000CD5040039
:101A200044900400800300202DE9F74F224D044626
:101A30000F46924601A901221846D5F808909B4608
:101A4000FFF724FD20B3019E4FF00008B21CD845DB
:101A500008EB020126D1194800210AF039FE80F373
:101A60001000000440EA1440E400731C04F0380441
:101A700003EA090306EA090644F0010405EB8303BF
:101A8000033644EA881444EA8724D86045F826409F
:101A900095F820341BB1FFF793FE0028FBD103B06B
:101AA000BDE8F08F09EA010105EB81015AF8283001
:101AB000CB6008F10108CAE788050020A4090020CE
:101AC00000231A46FFF7B0BF07B50123019201AA10
:101AD000FFF7AAFF03B05DF804FB07B5CDE90023CB
:101AE00002236A46FFF7A0FF03B05DF804FB1FB5B1
:101AF000CDE90123069B039301AA0323FFF794FF7B
:101B000005B05DF804FB1FB5CDE90023069B0293E9
:101B1000079B03936A460423FFF786FF05B05DF831
:101B200004FB7FB5CDE90123089B0393099B049334
:101B30000A9B059301AA0523FFF776FF07B05DF81E
:101B400004FB00002DE9F3472B4D0446D01C8946C9
:101B5000164601A900228008AF68FFF797FCA8B3DA
:101B6000DDF80480AB6808F10200019001333840D1
:101B70001B1AB6EB830F00F103004FEA830A05EB53
:101B800080002DD83246494645F06CFA1B480021AA
:101B90000AF09EFD80F3100008F101033B40220C87
:101BA00005EB830307EA080742EA00400337D860E1
:101BB000E40055F8273004F0380444F0020444EA05
:101BC000865203F47C131A4345F8272095F82034F5
:101BD0001BB1FFF7F5FD0028FBD102B0BDE8F0878F
:101BE0005246494645F03EFAA6EB0A0209EB0A01C5
:101BF00005F10C00C8E700BF88050020A4090020FB
:101C00002DE9F8431E4B8846D3F8101404460025EE
:101C10000A46A2B9E1680D71D3F81014A9B9C3F846
:101C20001044E3681A60174B174EF61AF60800279F
:101C300003F10709B74211D12846BDE8F883D268FD
:101C40001079A84216D01268E3E7C968E26809680B
:101C50001160D3F81034DB681C60E4E719F8372012
:101C6000E36842453946187928BF4246FFF744FDEC
:101C70000137DFE701350A2DCAD14FF0FF35DBE729
:101C800088050020BCD404009CD5040038B5094A5E
:101C90000123D2F8104482F820341D4604B938BD1F
:101CA000E3685D71236820465B689847E3681C68B9
:101CB000F4E700BF8805002007B503460846197AF7
:101CC000052911D05B7A2BB1094A0A4901900AF023
:101CD000B7FD0198084901900AF0B2FD019803B0E0
:101CE0005DF804EB0AF0A1BD002AF8D0F2E700BFCE
:101CF00078900400D0B604009A90040030B5C388F0
:101D000085B004460D4633B1144A00921449154A71
:101D100028460AF095FD217A05291DD0637A4BB13A
:101D2000A088FFF7D3FC104B104953F82020284619
:101D30000AF086FD227A0E4BA08853F822200392E7
:101D40000021FFF7AFFC039A0A490346284605B075
:101D5000BDE830400AF074BD05B030BD7890040095
:101D6000859004007D90040004910400D0B6040026
:101D7000289104009D9004002DE9F04385B01F4692
:101D80000C9D002395F80C902B7306460C4690464C
:101D900029463846FFF7B2FFB8F1060F09D8DFE849
:101DA00008F00412181F28334000314628460AF074
:101DB00047FD002229463846FFF77EFF85F80C9044
:101DC00005B0BDE8F0832268314628460AF038FDA8
:101DD000EFE7D4E90023314628460AF031FDE8E771
:101DE000A36800933146D4E9002328460AF028FD71
:101DF000DFE7E3680193A36800933146D4E9002349
:101E000028460AF01DFDD4E723690293E368019395
:101E1000A36800933146D4E9002328460AF010FD58
:101E2000C7E76369039323690293E3680193A36897
:101E300000933146D4E9002328460AF001FDB8E7B3
:101E400008292DE9F84F80460E4617461C463BD818
:101E5000002593F80C901D7319461046FFF74EFFAE
:101E6000DFF88CA0DFF88CB0AE422FD918F805202F
:101E7000594620460AF0E4FC0135082DF4D11949F1
:101E8000194DDFF874A020460AF0DAFC4FF0000B81
:101E90005E4522D918F80B207E2A1CD8134BD15C42
:101EA00011F0970F08BF2E22514620460AF0C8FCB9
:101EB0000BF1010BBBF1080FEAD101222146384694
:101EC000FFF7FAFE84F80C90BDE8F88F51462046E3
:101ED0000AF0B6FCD0E72E22E6E7294620460AF0B3
:101EE000AFFCE5E7B1900400AF90040069D20400B4
:101EF000AD900400A7900400B39004004FF0A043FD
:101F0000D3F80405C0F3C03070474FF0A0434FF43E
:101F10000042C3F8082570474FF0A0434FF4004239
:101F2000C3F80C2570474FF0A0434FF40042C3F8AC
:101F30000C2570474FF0A0434FF40042C3F808252A
:101F400070474FF0A042D2F80435D94301F4004164
:101F500003F40043C2F80815C2F80C35704718386E
:101F600018BF4FF0FF307047C20708B506D54FF0D5
:101F7000A0430322C3F83C27FFF7D5FF830742BFE6
:101F80004FF0A0430C22C3F8602708BD054B1B6827
:101F9000082B01BF044B1868B0FA80F0400918BF45
:101FA00000207047300100103401001008B54FF0D8
:101FB00080430022C3F80C21C3F81021C3F8382550
:101FC0004FF0805203F54043D2F80414C3F82015B3
:101FD000D2F80814C3F82415D2F80C14C3F8281545
:101FE000D2F81014C3F82C15D2F81414C3F8301515
:101FF000D2F81814C3F83415D2F81C14C3F84015DD
:10200000D2F82014C3F84415D2F82414C3F84815A4
:10201000D2F82814C3F84C15D2F82C14C3F8501574
:10202000D2F83014C3F85415D2F83414C3F860153C
:10203000D2F83814C3F86415D2F83C14C3F8681504
:10204000D2F84014C3F86C15D2F84424C3F87025B4
:10205000FFF79CFF10B1384B384A1A60FFF796FF24
:1020600018B1374BFB22C3F81825FFF78FFF48B193
:102070003449354B0A681B6822F00F0203F00F0346
:1020800013430B60FFF782FF18B1304B4FF400721F
:102090001A604FF08043D3F80024D20744BF6FF09A
:1020A0000102C3F800242A4AD2F8883043F47003AE
:1020B000C2F88830BFF34F8FBFF36F8F4FF01023FC
:1020C000D3F80022002A03DBD3F80432002B2FDAE6
:1020D000204B0122C3F80425D3F80024002AFBD0AA
:1020E0004FF010221221C2F80012D3F80024002A67
:1020F000FBD04FF010231222C3F80422154B1A46CE
:10210000D3F800140029FBD00021C3F80415D2F83D
:102110000034002BFBD0BFF34F8F0D490E4BCA6824
:1021200002F4E0621343CB60BFF34F8F00BFFDE7C3
:102130000A4B0B4A1A6008BD8C56004048810300C8
:1021400000F00040E40E00405802001040960240AB
:1021500000ED00E000E001400400FA05100000205E
:102160000090D00370B5114B5B8806460D465BB1FD
:102170000F48104C241AE40824040B4632460E493A
:1021800044F00100FFF7A9FC00F014F9702E0AD109
:10219000B5F5457F07D12CF093FD80F00100C0B26A
:1021A000064B187070BD0020FAE700BF380300200E
:1021B000BCD404000CD504003C910400450A002066
:1021C00007B5002301938DF803300DF103000BF0E8
:1021D000D5FB9DF80330032BF7D904210DEB01004B
:1021E0000BF0D6FB18B9019803B05DF804FB002092
:1021F000FAE7000008B50E4B5B884BB10D480E4B5B
:102200000E49C01AC008000440F00100FFF758FC56
:1022100000F0D0F8BFF34F8F09490A4BCA6802F4A7
:10222000E0621343CB60BFF34F8F00BFFDE700BFF9
:10223000380300200CD50400BCD4040062910400D3
:1022400000ED00E00400FA0510B5114C62884AB1B7
:102250001048114B1149C01AC008000440F0010099
:10226000FFF72EFC00F0A6F80D4B187868B16388D4
:102270006BB10848084B0B49C01AC0080004BDE800
:10228000104040F00100FFF71BBCFFF7B3FF10BD8B
:10229000380300200CD50400BCD40400779104005E
:1022A000450A00209091040010B5114B1C78ECB940
:1022B000104801221A702DF019F800F07BFA00F096
:1022C00075F820460BF02AFB18B1852801D0FFF7DE
:1022D000BBFFFFF775FF45F0E3F90BF073FB08B99F
:1022E000FFF7B2FFBDE810400AF04CBF10BD00BFC1
:1022F000440A00206521000062B6704772B670473C
:10230000FFF75EBF38B50D46144662B159B150B102
:102310000BF09EFB294620460BF06EFB18B9BDE87A
:102320003840FFF791BF38BDEFF30580003818BF84
:102330000120704707B54FF080531A6E596E064B57
:1023400002F0FF021343CDE900130822694644F06E
:1023500089FE03B05DF804FB0036CEF470470BF045
:10236000FDBA08B500200BF0D9FA18B1BDE8084055
:10237000FFF76ABF08BD10B5044658B1FFF7EFFF7D
:10238000204600F043FA0AF013FF00F065FA044615
:10239000FFF7E7FF204610BD024B1A78024B1A7078
:1023A000704700BFA4010020A501002000F006B87E
:1023B00000F036B800F066B800F012B8054B1A7895
:1023C0003AB9054A1178054A12780A431CBF01221E
:1023D0001A7070479C0A0020A501002024A7002045
:1023E00010B50A4C226882B1094B5B88022B0AD9CE
:1023F0000848094B0949C01AC008000492B240F0CD
:102400000300FFF79FFB0023236010BD980A002004
:102410007C03002094D50400BCD40400460A0020AC
:102420002DE9F843144B1B7807460D46EBB9BDE880
:10243000F883D8F80000C0F1500414F0FF0404D170
:10244000FFF7CEFF002DF4D1F1E7AC42A8BFECB20C
:10245000B9192246484444F005FED8F80030234418
:10246000C8F8003026442D1BECE7DFF81080DFF8B9
:1024700010900026E6E700BF9C0A0020980A002082
:10248000460A002008B5FFF7ABFFBDE80840FFF79C
:1024900097B900000378022B9EBF024B00221A70EE
:1024A000704700BF9D0A002040F6F8731868431C6F
:1024B00004BF054B18684FF08053411C1A695B69D3
:1024C00008BF03FB02F070471410001008B5FFF7B7
:1024D000EBFFA0F5104008BD10B5FFF7E5FF094C74
:1024E0002061FFF7F3FF084BE06000220749C3F8C3
:1024F000082120460AF072FB18B1BDE81040FFF732
:10250000A3BE10BDF0030020A00A0020BC98040068
:102510004FF4804070470220704708B513460A46C2
:1025200031B143B10146184644F09CFD002008BD7E
:102530006FF00A00FBE76FF00B00F8E70128F8B531
:1025400007460C4616461D4610D80B44B3F5804F7F
:102550000FD88AB19DB1FFF7B9FF04EB873421187A
:102560002A46304644F07EFD0020F8BD6FF038006A
:10257000FBE76FF01600F8E76FF00B00F5E76FF080
:102580000C00F2E70128F7B507460D4616461C4633
:1025900024D80B44B3F5804F23D82AB33CB3A30807
:1025A00027D0FFF793FF144B05EB873529181D46FD
:1025B0001A7802F0FF00002AFAD101221A70009066
:1025C00023460E4832460AF045FB2B78002BFCD1FF
:1025D000003818BF0120404203B0F0BD6FF0380052
:1025E000FAE76FF01600F7E76FF00B00F4E720460C
:1025F000F2E76FF00C00EFE79D0A0020F0030020E7
:1026000001282DE9F047064625D8FFF75FFF154F53
:10261000DFF854A000EB863404F58048B9463A78D8
:1026200002F0FF03002AFAD10122214650463A70F7
:102630000AF0D0FB90B999F8003003F0FF05002BA9
:10264000F9D104F58054A045E9D1304627F010FDBA
:102650002846BDE8F0876FF03800FAE74FF0FF300A
:10266000F7E700BF9D0A0020F003002010B5084CDA
:10267000D4F8083153B19BB2D4F8041194F8000196
:102680002246FFF77FFF0023C4F8083110BD00BFCA
:10269000A00A00202DE9F8431C4C1D46D4F808314F
:1026A00081460F4690466BB194F80021824207D1D3
:1026B000D4F804211A44914202D1B3F5807F01D1AC
:1026C000FFF7D4FFD4F8080118B984F80091C4F8D2
:1026D0000471C0F58076AE4234BFB6B22E464EB11C
:1026E00032464146204444F0BDFCD4F8083133441E
:1026F000C4F80831AD1BADB215B92846BDE8F88362
:10270000FFF7B4FF3744B044DCE700BFA00A002065
:1027100007B50B4B0093FFF7D9FE042200F50041EB
:102720000DEB020044F09EFC042269460DEB020012
:1027300044F08AFCB0FA80F0400903B05DF804FB75
:10274000E737DDF607B5CDE90010FFF7BFFEDDE99D
:10275000001200F50040043003B05DF804EBFFF711
:10276000DCBE37B5054601911446FFF7AFFE04F510
:102770000044043401992A46204403B0BDE83040A7
:10278000FFF7CBBE7047000038B542F0EBFE074BB9
:1027900007490A68D3E90045821AA41845F10005E3
:1027A000C3E900450860D3E9000138BDD00B002023
:1027B000AC0B002008B542F0D5FE034B1860034B6C
:1027C00001221A7008BD00BFAC0B0020C80B00200E
:1027D00008B5FFF7D9FF4FF47052002346F08CFA8A
:1027E00008BD704708B5FFF789FD044B1B780BB98E
:1027F000FFF7E0FFBDE80840FFF77EBDC80B0020F3
:10280000014B1878704700BFC80B002010B5044674
:1028100042F0A8FE0C4A034610609CB10B480C4ADB
:1028200003600C4B82609C4228BF1C464FF47A73B5
:102830005C4300214460C16042F0A0FEBDE810404E
:10284000FFF7A2BF10BD00BFB00B0020B40B0020EB
:102850008527000018CC070038B542F083FE074BEF
:102860001D68C5F5797504460335FFF78DFF2C44C7
:102870004FF47A70B4FBF0F038BD00BFB00B00200D
:1028800030B5164916488BB010234FF4907209F0FA
:1028900097FE08B109F0DAFC124D3EF0D3FA0FCDE5
:1028A00001AC0FC40FCD0FC42B68236001A841F009
:1028B000F1F801203EF03AFB01203EF03BFB0A4AD2
:1028C00000231370094A1370094A1370094A1370E0
:1028D000094B01221A700BB030BD00BFDC0B002089
:1028E00018000020D0910400D80B0020DA0B002043
:1028F000DB0B0020D90B0020140000203EF09EBA14
:1029000007B5ADF806000DF106003EF095FA03B0EC
:102910005DF804FB07B5ADF806000DF106003EF0CA
:102920008FFA03B05DF804FB034B1A781AB100224A
:102930001A70024B18707047D90B00201400002049
:10294000034A13781BB100231370024A13707047B7
:10295000D90B00201400002010B5084B1A78002A6B
:10296000FCD101221A704FF4705303FB00F420468F
:102970003EF0BCFA0028FAD010BD00BFDA0B0020F0
:10298000034B1A781AB1034A107000221A7070476C
:10299000DA0B0020DB0B0020034A1378002BFCD15C
:1029A000024B1B7803707047DA0B0020DB0B002012
:1029B0003EF02CBA3EF039BA10B504463EF037FA74
:1029C000207010BD3EF0B4BA08B53EF075FA00288C
:1029D000FBD008BD08B53EF067FA0128FBD008BD62
:1029E00008B53EF055FAC31E5842584108BD08B517
:1029F0003EF04EFA023818BF012008BD13B5044658
:102A0000022C104608D0032C10D0012C14D13EF01B
:102A1000A2FA204602B010BDA1F59C420093203AD4
:102A200044F6206300213EF059FAF3E7002102B09A
:102A3000BDE810403EF046BA0020EBE7084626F01D
:102A40005FBC013906290AD8DFE801F00407040455
:102A500007040400012026F07FBC0420FBE7704738
:102A60003EF048BA4378024AC3F30013137070472C
:102A7000D80B0020F7B51D460378093B762B04469A
:102A80000F46164604D920463EF034FA03B0F0BD96
:102A9000094801A909F0A7FD0028F4D0074B0460FC
:102AA0001A78077146718560027301A900220248F5
:102AB0001A7009F0C2FDE9E718000020D80B0020C9
:102AC000014B00221A707047D80B00200B461146AC
:102AD0000BB13EF03ABA3EF02FBA08B500203EF0F6
:102AE00037FABDE8084001203EF032BA034BD888DF
:102AF0001B89C01A18BF0120704700BF18000020B2
:102B000030B5054685B010B9002005B030BD184875
:102B100003A909F0A2FD04460028F5D003681A783D
:102B200001921146284625F009F92168019A0131E0
:102B300044F098FA284625F0C0F8637900F8023C82
:102B400094F9043000F8013C0421284625F038FAB5
:102B5000A3680360217B284626F03AFC20683EF0FB
:102B6000C9F9034803A909F0A3FD0120CDE700BF7F
:102B700018000020F8B50F4B002420220F460D212D
:102B800083F88A201C7083F8784083F88C102246E2
:102B9000234605462BF00CFC064650B1214628463C
:102BA00025F09BFA377029460348BDE8F8402AF023
:102BB000B5BDF8BDE6AA002049E8020073B50022C1
:102BC0000C460DF1070311468DF8072024F0D4FBC5
:102BD00038B90A4B9DF8075093F8431002469142CA
:102BE00002D86FF01B0005E0DE7BAE4203F10D035F
:102BF00002D1227002B070BD0132F0E7E6AA0020D7
:102C00000B4BD3F801202AB983F8782011460948E4
:102C100024F079BF8C2A0BBF0722062283F8782084
:102C200083F8782007BF0022032100220221EEE76B
:102C3000E6AA0020752B000037B5114D044625F09B
:102C40002BF82A78042A07D142782AB90D48214660
:102C500024F059FF03B030BD40880DF10701FFF7A4
:102C6000ADFF0028F6D19DF8073007480D2202FB82
:102C7000035321465A7D01325A752AF04FFDE9E788
:102C8000E6AA0020152F0000E130000008B5002260
:102C9000FF2109482BF030F80022FF2107482BF0D4
:102CA0002BF875220648002144F004FA054B064A29
:102CB000C3F8942D08BD00BF012C0000FD2C0000BE
:102CC000E6AA002010B000209532000010B50022C6
:102CD000084C094811462BF00FF894F8440003F013
:102CE000EDFB00232022237084F88A2084F87830BA
:102CF00010BD00BFE6AA0020FD2C000010B5044660
:102D000020B9BDE81040084824F0D8BEFFF7DEFF28
:102D100000230C2120461A462BF04AFB214603488B
:102D2000BDE810402AF0FABCFD2C000049E8020082
:102D300008B50022FE2105482AF0DEFFBDE8084064
:102D400003480022012124F0DEBE00BF012C000058
:102D5000752B000070B50C4BD3F845302BB11D7CA2
:102D6000D3F811200023AB4201DB002070BDC3EB80
:102D700003141619145B844202D1347A8C4201D1B7
:102D80000133F0E70120F1E7E6AA00202DE9F04742
:102D9000044688B0C0790E4624F07EFF90F80BA060
:102DA00090F80C800746D044D4F80950454580F08F
:102DB00090802B1D07EB4303AA4594BF02210121FC
:102DC000B3F805904846FFF7C5FF002800F08A8059
:102DD000DFF834A11C21304625F0F2F8DAF809308A
:102DE00005465746002B50D0217806A823F04AFF0D
:102DF000A279DAF809A022444B46527806A90220AB
:102E0000D047002841D16FF04402D4F809309845EA
:102E100070D13D4F97F84A30002B67D0B7F8752036
:102E20004FF6FF739A4261D00025217806A823F05F
:102E30006BFF2B462A4601210095304601F02EFEFD
:102E4000B7F875102AF03FFB01464FF48273042255
:102E500001F8015BCDE90232049597F84430019303
:102E6000A379234406AA5B7800933046022301F03D
:102E70009DFDA379E17925480133A3712AF04EFC29
:102E80000023E37108B0BDE8F0871C22002128462A
:102E900044F010F928462BF06BFC97F844302B7265
:102EA000A5F80A90B7F875204FF6FF739A4212D131
:102EB000217805F10D0023F0E5FE03232B73A379A0
:102EC000234430465B786B75114B2672AB6113F06F
:102ED00051FB002299E701232B73B7F87530A5F851
:102EE0000D30ECE70135C4F809505DE7304624F0B9
:102EF00073FEBEE7002AC5D00133C4F8093031465D
:102F00002046FFF743FFBDE7E6AA0020E1300000BE
:102F1000AD2F00002DE9F341CFB2054638460C46EF
:102F200024F0BAFEDFF88080C1880646D8F8450054
:102F300000F0E1FF03460DF107017088A3B1FFF730
:102F40003DFE28BB9DF807300D2101FB0384294677
:102F500020766076A076E0762046A7750F30FFF7E2
:102F600015FF02B0BDE8F081FFF728FE064678B9EC
:102F70009DF807000D2303FB00803946437D013394
:102F8000437508482AF0CAFB002DEAD0344600E019
:102F900015B1284624F020FE002CE2D0E0B224F047
:102FA0001BFEDEE7E1300000E6AA00202DE9FF4726
:102FB0001C21074625F004F8314B93F84320814645
:102FC0004FF000081C46904514D32E4B1B6873B974
:102FD000FFF7AAF9014650B90423009301974FF473
:102FE000BA7340F25B324FF0FF302BF091F904B02E
:102FF000BDE8F087D97DB94203F10D0311D10D234E
:1030000003FB08430026DE75384625F05FF80546C9
:1030100050B16FF073036370A670E67026710125DE
:1030200009E008F10108CEE701236070A070E070AC
:10303000207184F84A300D2606FB084602A8F17B71
:1030400023F020FED4F809A0BAF1000F07D0737D59
:103050001E4402A9B9F80A30327C28B2D0470D20AC
:1030600000FB08F804EB080208F10F08936901332C
:103070009361394604EB0800FFF788FEB7E700BF0D
:10308000E6AA002028C0002070B50E46054601467D
:10309000304625F022F88C2D0F4C03D1072384F8FD
:1030A000783002E0B5B984F878502378052B06D142
:1030B00094F8782000230C2130462BF079F9002376
:1030C0002370202384F88A3031460448BDE87040DC
:1030D0002AF024BB0623E2E7E6AA002049E8020022
:1030E0002DE9F341054624F0D7FD0DF10501408897
:1030F000FFF764FD074600284AD19DF80530274CAC
:103100000D2202FB0346717D307D884222D9314475
:10311000284691F81080032124F010FE032239463E
:10312000044643F0C7FFF17B0DF1060023F0ECFDF0
:10313000BDF806301A49238084F8028028462FF013
:103140008FFAFF2803D129468A20FFF79DFF02B09E
:10315000BDE8F081FF21022BF1730BD803FB0220A5
:1031600000F10F01C3F1030302305A43214420440C
:1031700043F086FF94F84330013BDBB284F84330E0
:1031800033B9D4F801208C2A08BF072384F878309B
:10319000002DDCD0284624F01FFDD8E7E6AA002049
:1031A000392C00002DE9FF47374E804624F074FD8E
:1031B00096F800A0BAF1040F05465DD140880DF1E4
:1031C0000D01FFF7FBFC814600285BD19DF80D4007
:1031D0000D2707FB04670DF10E00F97B23F094FD2A
:1031E0002B793B75042B87F8159029D9274B1A6842
:1031F000994602BBFFF798F8014650B93B7D40F273
:103200005B32CDE900A34FF0FF3040F2B3332BF037
:103210007FF8D9F8003073B9FFF786F8014650B946
:103220000423CDE9003340F25B3240F2B5334FF076
:10323000FF302BF06DF80D2303FB046304221A7595
:103240000D2202FB046302FB0464197D2B1DC5F1F2
:10325000FF2505F57F051034FC35EA18914206D8A4
:103260000B4841462AF05AFA04B0BDE8F08713F83B
:10327000012F04F8012BF0E76FF007004146FFF73C
:1032800003FFF1E70020F9E7E6AA002028C00020AC
:10329000E13000002DE9F04F644C2378042B8DB011
:1032A000064640F0BF80D4F801301C3304D100231F
:1032B0006370A370E37023711B21304624F080FEFD
:1032C0001B22014605A843F0CDFEBDF8150003A959
:1032D00024F07EF8054620B9554B93F8D03F9B0665
:1032E00014D50621304624F06BFEBDF8153043801E
:1032F0000380002383804F4930462FF0B1F8FF2828
:1033000071D131468A20FFF7BFFE6CE0FF238DF8B4
:103310000A302378BDF815909DF81FA0042B1FFAE2
:1033200089FB10D10DF10A015846FFF747FC68B13F
:1033300094F84330032B04D88DF80A30013384F815
:103340004330012703E06FF00705FAE72F469DF8A9
:103350000A80B8F1FF0F4BD0002F47D000220DF1AB
:103360000B031146584624F007F8054600283FD1C4
:103370000D2303FB08439DF80B20DA73187558756D
:103380000D2505FB08452B7D032B34D8EA180133A6
:1033900082F810A02B75002F43D00521304624F071
:1033A000CDFC05220546002143F084FE00236B700E
:1033B0000D2303FB0844A5F80290237D2B711E4BBF
:1033C0001B6863B9FEF7B0FF014640B900904FF4A7
:1033D0005F7340F25B324FF0FF302AF099FF1748DD
:1033E00031462AF09BF90DB0BDE8F08F002DC7D013
:1033F000314628B287E7104B1B68002BCBD1FEF774
:1034000093FF01460028C6D12B7D0193042300932E
:1034100040F25B3240F271334FF0FF302AF078FF18
:10342000B9E7304624F0D8FBDDE700BFE6AA00206C
:1034300010B00020E134000028C00020E13000007E
:10344000F7B50D460446FF260DF1060128468DF816
:103450000660FFF7B3FBA8B31F4A92F84330032B73
:1034600004D88DF80630013382F843309DF8067099
:10347000FF2F2AD000220DF10703114628468DF8B0
:10348000072023F079FF0646F8B9134B0D2202FB03
:1034900007379DF80730FB730221204624F04EFCCD
:1034A00007460222314643F005FE0C493D80204686
:1034B0002FF0EFF8FF2803D121468A20FFF7E4FD23
:1034C00003B0F0BD8DF80660D0E7002CF8D02046A0
:1034D00024F082FBF4E700BFE6AA0020A53100003B
:1034E00037B5044624F0D8FB0546204624F0EEFD0F
:1034F000024658B969890DF10703A81C24F062F847
:1035000069892046FFF79CFF03B030BD204624F0B8
:1035100063FBF9E710B50D49A1F5BC72914201D8E2
:1035200000200FE08C1AE30F03EBE4035B1002EBC7
:10353000C30452F83330834205DC02DA04F1080296
:10354000ECE7606810BD2146E8E700BF88960400FC
:1035500008B5FFF7DFFF024B002808BF184608BD7B
:10356000FA9404002DE9F743DDF828801F4605464C
:103570008946164601F0B0FAD0F8B030EBB101F050
:10358000ABFACDF80080D0F8B0403B463246494611
:103590002846A047044629464A46304603F0F4F937
:1035A00014F1450F05460CD150B14246314638461C
:1035B0002B4603B0BDE8F04318476FF04404EAE738
:1035C0000446204603B0BDE8F0832DE9F041069F94
:1035D00005461E4603F0EEF9044630B13A46314640
:1035E00028462346BDE8F0411847BDE8F081B0F811
:1035F0000F30B3F5A06F01D102F0A4BE70470020D8
:10360000704770B51B2188B0054624F0D9FC1B22F9
:10361000014601A843F026FD01F05EFAD0F8AC6047
:103620004EB101F059FAD0F8AC309DF8100098472F
:103630006FF01E0017E001F04FFAD0F89C30002B1D
:10364000F6D03421284624F0BBFC1D2303709DF8DE
:10365000103043704660044601F03EFAD0F89C30CA
:1036600028469847606801F08BFA01A9024628466F
:1036700003F03BFA08B070BD10B5FF2888B00446CF
:1036800007D101F029FA0C4BC0F85832012008B0DC
:1036900010BD1B2124F094FC1B22014601A843F01D
:1036A000E1FC9DF8173023B9214604482AF036F88A
:1036B000ECE70020EBE700BF2C0000200336000001
:1036C00007B5054B00930023044A0121184602F078
:1036D000BDFF03B05DF804FB79360000FF35000044
:1036E000F8B50C46154607461E4600F0F7FA0122CB
:1036F000002100F02EFC90B1122301220021384657
:1037000001F0FEFF58B14368187840B91EB1052C8E
:1037100005D90B2C02D1032D01D00020F8BD0120CA
:10372000FCE7000037B50146044600220F4824F0AC
:10373000EAF90546B8B10E4B1B6873B9FEF7F4FD04
:10374000014650B90423009301954FF49F6340F65E
:103750000F024FF0FF302AF0DBFD204603B0BDE83A
:10376000304024F039BA03B030BD00BF5D420000E4
:1037700028C0002013B5154AD2F8E03A1BB1D2F8A0
:10378000E43A2BB90123023302EB8303C3F8D80ACE
:10379000D2F8DC3ABBB9C2F8DC0A0D4824F08EF945
:1037A000044680B10B4B1B686BB9FEF7BDFD0146AB
:1037B00048B90423009301947D2340F60F024FF093
:1037C000FF302AF0A5FD02B010BD00BF10B00020F0
:1037D0001D43000028C00020F8B5124BD3F8843BED
:1037E00004460BB1007898470F4F22783A700025B5
:1037F000237C9D4202D3FF233B70F8BDD4F81130E7
:10380000C5EB05163344D3F80B3003B19847D4F811
:103810001120B4F801102078324405F0DDFE0135A6
:10382000E6E700BF10B000203C0000202DE9F04F7B
:103830004A4BD3F8DC3A8FB093F800C007930022CC
:103840005FFA82FEF44540F2868093000D93079B59
:10385000D3F8013053F822B003EB82010A919BF8B0
:1038600010300B930021012305911BE00599DDF831
:103870002880C3EB03100C90C1EB0117704658F879
:10388000044B06940C9E247C09941D460999A94278
:103890000FD80130C0B28445F1D10599013301310F
:1038A0000591DBB29DF814000B998142DED80132FC
:1038B000C6E7DBF81140E11908910699E45BD1F8FD
:1038C000119009EB060A39F80690A1453DD10899F7
:1038D0009AF808A091F80890D14536D1042C12D05E
:1038E000192C10D0202C0ED040F20B718C420AD033
:1038F00040F201218C4206D0B4F5006F03D04FF6A0
:1039000057418C4221D1164B1B6813BBFEF70CFDAF
:103910000546F0B9114B0D9AD3F8DC3AD3F80130D3
:103920009B58D3F811301F4401463B7ACDE901433F
:103930000823009340F60F02D1234FF0FF302AF006
:10394000E7FC28460FB0BDE8F08F0135EDB20F3629
:103950009CE70025F5E70125F3E700BF10B0002044
:1039600028C000204A2807B500F29A80072807D807
:103970004FF0FF3000E01020C0B203B05DF804FB50
:10398000A0F10803422BF3D801A252F823F000BFA4
:103990009D3A0000053B00000D3B0000093B000084
:1039A000113B0000713B0000153B0000193B00007B
:1039B0009D3A000071390000713900007139000032
:1039C000713900007139000071390000713900004F
:1039D0009D3A0000053B00000D3B0000093B000044
:1039E000113B0000713B0000153B0000193B00003B
:1039F0009D3A0000053B00000D3B0000093B000024
:103A0000113B0000713B0000153B0000193B00001A
:103A10009D3A0000053B00000D3B0000093B000003
:103A2000113B0000713B0000153B0000193B0000FA
:103A30009D3A0000053B000071390000713900001B
:103A400071390000713900007139000071390000CE
:103A5000053B0000093B0000193B000071390000E4
:103A600071390000713900007139000071390000AE
:103A7000713900001D3B00001D3B0000313B000080
:103A8000713900007139000071390000713900008E
:103A9000313B000071390000313B000001206BE731
:103AA00000F12003DBB2112B3FF662AFE0381128A2
:103AB0003FF65EAF01A353F820F000BF093B0000C2
:103AC000093B0000093B000071390000713900001A
:103AD000713900007139000071390000053B0000A8
:103AE000053B0000093B00007139000071390000FE
:103AF000713900007139000071390000193B000074
:103B000077390000022037E7042035E7032033E748
:103B1000052031E707202FE708202DE700293FF493
:103B200027AF0878FF283FF423AF0130C0B223E766
:103B300000234828ADF806304FF0020201D0432898
:103B40000CD10DF1060043F08DFABDF806004FF6DA
:103B5000FF7398423FF40CAF02300DE70DF1060001
:103B600043F080FABDF806309B00ADF80630ECE774
:103B7000062001E730B50B464A2B85B004461146B6
:103B800029D8072B2ED9A3F10802422A2AD8DFE828
:103B900002F02C304236292929752C292929292976
:103BA00029292C304236292929292C304236293C12
:103BB00029292C304236293C29292C302929292928
:103BC00029292929292929292929294848552929FB
:103BD000292955295500F12B56D003D8E22B0ED0B8
:103BE000F02B4BD0204605B030BD0B7804F8013BDC
:103BF000F8E72046022243F035FA0234F2E7204685
:103C0000042243F02FFA0434ECE72046062243F066
:103C100029FA0634E6E72046032243F023FA033468
:103C2000E0E70029DED00D78FF2DDBD00135EDB2C5
:103C300020462A4643F016FA2C44D3E70022482BAC
:103C4000ADF80E2001914FF002020DF10E0001D0EF
:103C5000432B0BD143F006FABDF80E5001994FF6F5
:103C6000FF739D42BED00235ADB2E1E743F0FAF9F1
:103C7000BDF80E309B00ADF80E30EDE7204608226F
:103C800043F0F0F90834ADE7102243F0EBF91034BB
:103C9000A8E700002038C0B20D289ABF014B185C7D
:103CA00000207047889604002D280FD81F2812D9AD
:103CB00020380D280FD8DFE800F0070707070E07A8
:103CC0000E0E070707070E0701207047A0F1E20359
:103CD00058425841704700207047000070B5134AA1
:103CE000D2F8E03A0146A3B11D780020A84208D2DC
:103CF000D3F8014054F8204026788E420BD0013092
:103D0000F4E70023D2F8E44A1CB125780022AA4245
:103D100003D3184670BD2346F4E7D4F8010050F8E9
:103D2000220006788E42F5D00132F0E710B0002074
:103D300070B51B2188B0044624F042F91B220146CD
:103D400001A843F08FF99DF810603046FFF7C6FFD9
:103D50009DF81A30BDF813209DF81710054630461F
:103D6000FFF7BEFC20B9204623F036FF08B070BD37
:103D700006F010FF40B9D5F80330EBB9204602F049
:103D800045FE024650B9F1E7BDF8130005F00FFFFC
:103D900048B19DF812301B0705D47E2201A92046A8
:103DA00002F0E4FEE2E7BDF81310BDF8050005F0EF
:103DB000AFFE0028DFD1F0E7074BD3F88C3D33B9D5
:103DC000D5F80330204698470028D7D0CEE701A881
:103DD00098470028D2D1F3E710B0002000F52D332A
:103DE000F0B503F2A513104D03F00F0213462C4655
:103DF0009F1C05EBC70696F8DCCABCF1000F07D183
:103E000004EBC70383F8DC0AC3F8D81A0020F0BD1E
:103E1000D6F8D86A002EF3D0013303F00F039A428C
:103E2000E6D16FF01500F2E710B00020F8B500F50C
:103E30002D3303F2A513194903F00F02044613466C
:103E40000E469D1C01EBC50090F8DC0AA0421CD177
:103E500020F0CCFD28B1204624F038F908B130F02C
:103E600075FD06EBC507D7F8D80A58B1214629F0E9
:103E700055FC0020C7F8D80A06EBC505002385F8D5
:103E8000DC3AF8BD6FF01B00F6E7013303F00F03D7
:103E90009A42D6D16FF01B00F3E700BF10B00020AC
:103EA00037B504460D46104619469DF81C30E4B15E
:103EB0006268D2B13BB1E3785A0616D49B0702D4AC
:103EC000882003B030BD069B00932A462388FFF765
:103ED00049FB411C0BD0821D0BD0831CF0D010F18C
:103EE000280F14BF00207E20EBE78620E9E787201B
:103EF000E7E70020E5E738B3D0F815302BB3B0F88A
:103F00000130994223D0B1F5827F1ED06FF48072C8
:103F1000881807284FF6FF728CBF002001209142BD
:103F200009D1B3F5827F12D04CF25E00834214BFF8
:103F30000020012070474CF25E02914202D1B3F59D
:103F4000827FF4E70028FAD17047002070470120F3
:103F5000FAE7F0B598B1077C0023BB4202D30024F6
:103F60002046F0BDD0F81160C3EB03157419755BE2
:103F70008D4202D1257A9542F2D00133EDE7044615
:103F8000EEE700002DE9F04F87B08146109E0C4609
:103F900015461F4601F0B4FB8246002800F08680DB
:103FA000002E00F083809DF844302246CDE9006366
:103FB00049462B46FFF774FF804698BB3B462A468E
:103FC000214648460096FFF700FB31469AF802006A
:103FD000DAF804B0FFF7C6FC31460246584643F013
:103FE00041F89AF80330590705D53B462A46214641
:103FF000484605F07FF99AF803301A0712D52D4B81
:104000000393039B53F804BB0393BBF1000F09D048
:104010004FF0000A9BF800309A4507D3264B039ACD
:104020009342EED1404607B0BDE8F08F4FEA8A03D5
:104030000493DBF8013053F82A0003784B4532D063
:104040002A462146FFF785FF0028E3D0394601F0D4
:1040500053FA02900028DDD0DBF80130049A9B5817
:104060002146187800962A463B46FFF7AEFA029B97
:104070005B680593029B31469878FFF773FC059BBC
:1040800002463146184642F0EDFF029BDB785B07A3
:1040900009D5DBF80130049A9858214600783B4650
:1040A0002A4605F027F90AF1010AB3E74FF00108A3
:1040B000B8E700BFF0BA0020F8BA00202DE9F84FA9
:1040C00007EE903ADFF89C8005460E4691464FF089
:1040D000000B58F8047B07B3002D3ED03A7800243B
:1040E00023469A4204F1010401D8E5B112E0D7F861
:1040F000011051F823301B78AB42F1D10025F4E7D1
:10410000012078B117EE901A5046FFF7F4FE48B13F
:104110009AF800B0124B4345DBD15846BDE8F88F02
:104120004A4612E001343B78A342F3D9D7F8013074
:10413000B9F1030F53F824A0F2D1012231465046C1
:10414000FFF707FF0028DBD1022231465046FFF778
:1041500000FF003818BF0120D3E72C46C5E700BF99
:10416000F8BA0020F0BA002037B51B21054623F02D
:1041700027FF037BFF2B044630D1037DB0F80F10DF
:10418000002B08BF0122B0F8113018BF0222002016
:10419000FFF794FF28B9284603B0BDE8304023F06C
:1041A0001BBD207300221148294623F0ACFC0446B5
:1041B000D0B10F4B1B68002BEDD1FEF7B5F80146CF
:1041C0000028E8D104230093019440F2525340F6B2
:1041D0000F024FF0FF302AF09BF8DCE7284603B0CF
:1041E000BDE83040FFF7A4BD03B030BD5D42000024
:1041F00028C0002030B589B004461B22002101A848
:1042000042F058FF01A9204602F0A6F901A905468F
:104210000246204617F0F0FDB8B9204623F03CFDD9
:10422000037813F0040F14BF05210321204623F067
:10423000FDFD1B21204623F0C3FE1B2201A942F0F5
:1042400011FF25B92046FFF78FFF09B030BD2A4680
:1042500001A9204602F08AFCF7E700002DE9F041B1
:10426000CDB207461B21284623F0AAFE0446294664
:10427000384623F032FD94F80C80124E29F0FCF8F9
:104280003946B0FBF6F61048324629F06DFB237D27
:10429000B4F80F10002B0CBF01220222B4F8113029
:1042A0004046FFF70BFF20B92846BDE8F04123F058
:1042B00093BC2073324629460448BDE8F04129F0FA
:1042C00053BB00BF7CF0C107313D00002537000023
:1042D0002DE9F84F104C06460A4604F1080A4FF043
:1042E000000854F8047B8FB197F800B00025AB4567
:1042F0000AD9D7F8013053F8259031464846FFF7E0
:1043000028FE30B199F800805445EAD14046BDE816
:10431000F88F0135EBE700BFF0BA002013B5044673
:10432000B8B9144823F0CAFB044680B1124B1B688D
:104330006BB9FDF7F9FF014648B9042300930194D6
:10434000402340F60F024FF0FF3029F0E1FF02B0AA
:1043500010BD01212020FFF7BBFF0146204621B1FF
:1043600002B0BDE8104004F035BC02B0BDE810401A
:1043700023F032BC1D43000028C00020F0B50E4DD4
:1043800000244FF6FF7155F8042B72B11778002303
:104390009F4209D9D2F8016056F8236096F800C010
:1043A000844506D1B6F801100CB10846F0BD0124D1
:1043B000E9E70133ECE700BFF0BA002038B5044666
:1043C0000D46FFF7DBFF44B1B0F5827F05D14FF614
:1043D0005743EB1A5842584138BD0020FCE7000013
:1043E0002DE9F84F114C06460A4604F1080A4FF031
:1043F000000854F8047B37B197F800B000255D45FC
:1044000004D35445F5D14046BDE8F88FD7F80130C4
:1044100053F8259031464846FFF79BFD10B1037ACB
:10442000934201D00135EAE7C846EAE7F0BA002036
:1044300038B51B2123F0C4FD0446007BFFF74EFC7A
:10444000257DB4F80F10002D0CBF01220222FFF7CA
:1044500080FD124A127A012A034614D0217EA27DE1
:1044600061B1002A14BF84208320A3B1012D0CD197
:104470001B7A13F0020F18BF002038BD002A0CBFB2
:1044800081208220F1E78120EFE7002DF5D11B7A12
:1044900013F0010FEFE7C320EFE700BF000D00208E
:1044A00007B5042201460DEB020042F0DBFD019846
:1044B00003B05DF804FBF7B50191102116461F46C5
:1044C000054623F07DFD044628461DF0A9F89523F6
:1044D000032E23609DF8203008BF0199A37316BFF7
:1044E00001A90822022227716671A01D42F0BAFDBF
:1044F0000998294629F012F903B0F0BD2DE9F04FD3
:1045000087B01F46BDF8443001939DF84C300293AC
:10451000BDF8583003939DF85C309DF84090BDF88D
:1045200048B004930D461646DDF850809DF854A01F
:10453000044623F0B1FB0378817813F0030F0CBF1E
:10454000012300235A464846FFF7CAF898B9B8F144
:10455000000F0AD03B46324629462046CDE9109846
:1045600007B0BDE8F04FFFF7A6BF204607B0BDE893
:10457000F04F23F031BB1821204623F021FD1822F3
:104580000021059042F096FD059BDE732A681A60B3
:104590006A685A60019A1A81BAF1010F029A1F7370
:1045A00083F80D90A3F80AB09A7305D1039A5A8242
:1045B000049A1A7583F811A0012E06D029884FF6A7
:1045C000F77291429CBF04221A7441462046FFF7BD
:1045D00005FC0028BED1012030F060F903482146D7
:1045E00007B0BDE8F04F29F099B800BFBD7F0100CA
:1045F0002DE9F04F87B01F46DDE913A39DF84090E9
:10460000BDF848B0039388461646054623F044FBA0
:104610000378817813F0030F0CBF012300235A465F
:104620004846FFF75DF898B9ADF81080BAF1000F71
:1046300008D0CDE9009A3B46324604A92846FFF748
:104640003AFF02E0284623F0C7FA07B0BDE8F08F32
:104650001821284623F0B4FC18220446002142F019
:1046600029FDBDF84430E673012EA4F800802773BD
:1046700084F80D902381A4F80AB005D04FF6F773A3
:1046800098459CBF0423237451462846FFF7A6FB98
:10469000A8B903990D484FF47A7343F6FF3203FB30
:1046A00001224FF470530121B2FBF3F2039229F07F
:1046B0005BF9039A0648294629F056F9C5E7CDE982
:1046C000009A3B4632462146B8E700BF9D480300AA
:1046D000BD7F0100A1F5E0630B2B04D9A1F50063B8
:1046E0005842584170470120704700002DE9F04FB3
:1046F0002DED028B8BB08A4606931821BDF85830F9
:1047000004920593064623F05BFC0446304623F0F2
:10471000C3FA237B94F80DB0B4F80A908178E77B54
:1047200008EE103A037813F0030F80460CBF012304
:1047300000234A465846FEF7D3FF0546B0B9049B0E
:1047400073B1CDE900B33A4618EE103A214630462F
:10475000FFF7B1FE28460BB0BDEC028BBDE8F08F31
:10476000304623F039FA6FF00705F3E72089494610
:10477000FFF7B0FF0546BAF1000F17D0514630469B
:1047800023F031FB0790304623F090FA079B8342D9
:104790000CD95146304623F026FB8246304623F0A2
:1047A00085FAAAEB0001304623F01AFC012F11D044
:1047B000E37B022B04D122884FF6F7739A4209D883
:1047C000484605F0D9F928B1069B1BB9237C43F074
:1047D000040323741DB1237C43F00803237411F0F8
:1047E000DBFD054600285DD106F0D4F9002859D03C
:1047F000484605F0DCF9002854D00822294608A8CC
:1048000042F058FC022F3AD0032F3ED0002F08BFB1
:10481000002518BF6FF0270506F0BCF900283AD034
:10482000002F38D045B908A811F0E6FD20B10221CB
:1048300008A831F09FFA88BB5A4B1B6873B9FDF783
:1048400073FD014650B90423009340F60F03CDF8E1
:1048500004901A464FF0FF3029F05AFD6FF02705FB
:10486000049B002B3FF476AFCDE900B33A4618EE37
:10487000103A21463046FFF71EFE00256AE72088E1
:1048800008A922F0A5FD051EC3E70822214608A8B5
:1048900042F0E8FBC0E7002DCED1C8E7237C43F00F
:1048A0000103237449465846FFF788FD68B1082282
:1048B000002108A842F0FEFB022F1ED0032F52D089
:1048C0003FBB237C43F00103237404993046FFF778
:1048D00085FA05460028C3D1304623F0DDF9037878
:1048E000DB0602D401202FF0D9FF059B002B53D10A
:1048F00031462D4828F012FF2CE7208808A922F025
:1049000067FD054630B9022108A831F033FA0028C6
:10491000D7D10025234BD3F800A098F802300B2BF9
:1049200027D198F800305A0723D198F80430012B8A
:104930001FD1BAF1000F12D1FDF7F6FC014670B994
:10494000CDF8089098F8033001930823009340F6BF
:104950000F0240F657034FF0FF3029F0D9FC002D2D
:104960007FF47EAFB1E70822214608A842F07AFB27
:10497000C9E7BAF1000F7FF471AFFDF7D5FC00284D
:104980007FF46CAF04230093CDF8049040F65E03EF
:1049900040F60F0251465DE7059A0348314628F07C
:1049A000E3FFD7E628C00020BD7F01002DE9F74FC7
:1049B0001D469DF8303001930F46BDF83C30009302
:1049C000182190469DF834B0BDF838A0DDF840902D
:1049D000064623F0F5FA18220446002142F06AFB4D
:1049E000032D0CBF082202224146E573204642F007
:1049F00039FB019B2373009B63814A4600233946A0
:104A0000304684F80DB0A4F808A00C9303B0BDE8BC
:104A1000F04FFFF76BBE2DE9F04F87B01D46BDF894
:104A200048300193BDF84C3002939DF85430039305
:104A30009DF8583005930F46BDF85C30049318215B
:104A400090469DF840B09DF844A0DDF85090064691
:104A500023F0B6FA18220446002142F02BFB032D66
:104A60000CBF082202224146E573204642F0FAFAC2
:104A7000019B2381029B6381039B2374049B84F825
:104A80000CB084F80DA01093059B4A463946304679
:104A900007B0BDE8F04FFFF729BE0000F7B5089F4B
:104AA00001920C461E4623F083F90A4B00F8014B95
:104AB00093F8D85A01996A1C14F0040F83F8D82A85
:104AC00001D028F000FD05704670023007B13D703E
:104AD00003B0F0BD10B0002000487047E8BA0020D5
:104AE00000487047000D002002289DBF024B18703F
:104AF00000206FF005007047000D0020014B187A70
:104B0000704700BF000D002001289DBF024B1872A6
:104B100000206FF005007047000D0020174B1B7838
:104B200053B3932813D8802826D9A0F18103122BE0
:104B300022D8DFE803F00A0A0A0A21212121211ED6
:104B4000212121211C1A1A201A0081207047C22815
:104B500011D006D800F14003DBB2012B98BF012031
:104B60007047C42808BF00207047012070477E208E
:104B70007047002070477F20704700BF000D002065
:104B800010F10A0F10D010F1090F0ADA10F11F0FFF
:104B90000CD017300CD0074B187A012818BFC02052
:104BA00070470028F7D170478520704781207047F3
:104BB0008720F8E7000D00202DE9F04788B0074670
:104BC000ADF81E1023F0F4F8082303700446FFF735
:104BD00083FF0378DFF8B8A05A1C027063700A23C1
:104BE000A3702A4B93F8008003349946B8F1050F5F
:104BF00037D801223AF818301146C42000F080FD61
:104C0000064610B301214CF25D20FFF763FD2146FB
:104C1000F0B1384623F0E7F8C0F5CA6301339DB21E
:104C20007168B078FEF79EFE0330854217D3318855
:104C3000204628F048FCB17800F8011B7268FEF7A6
:104C400099FF0023044689F8003008F10108CDE7F8
:104C5000384623F0C8F8C0F1520085B2E0E789F881
:104C6000008001230022CDE903324CF25D21C423F0
:104C7000CDE9013100930DF11E0202232146384691
:104C8000FFF794FE08B0BDE8F08700BF0D0D0020CF
:104C900096960400064A127803462AB1032A03D0E6
:104CA0004FF6FC71FFF788BF184622F095BF00BF92
:104CB0000E0D002038B5044620B9BDE83840204824
:104CC00022F0FCBE1F4D2A7892B3032A30D0012275
:104CD00008231146C42000F013FD436819884FF6DD
:104CE000FF739942204620D1FFF7D4FF00221448D9
:104CF000114629F001F82B78022B20D101231A4606
:104D00001946C42000F0FCFCB0B1436818880F3885
:104D100080B228F09BFB0F3080B242224243BDE8B4
:104D200038400748002128F01FBEFFF745FFDDE7A8
:104D3000204622F051FFD9E74FF49670E7E738BDDF
:104D4000B54C00000E0D002073B5224D0E460446F2
:104D500040B92A7822B901231F482B7022F0D3FED4
:104D600002B070BDFFF7B8FED0F89C305BB33421C1
:104D700020468DF8046023F023F93422002142F00C
:104D800099F93421204623F01BF96523037034215F
:104D9000204623F015F9002646603421204623F0F2
:104DA0000FF934218660204623F00AF901ABC36075
:104DB0003421204623F004F90661FFF78DFED0F878
:104DC0009C3020469847002320462B7022F004FF99
:104DD000C6E700BF0F0D0020494D000010B510B907
:104DE0000F4B187010BD0128FCD10E4B197801290A
:104DF000F8D10B4C2278012A09D80B4822F05EFE2C
:104E00000A4822F05BFE237801332370EAE703228D
:104E100000201A702070BDE81040FFF795BF00BF5A
:104E20000C0D00200E0D0020754E0000954C00006A
:104E3000002208B50D48114628F05EFF0C4B1B7888
:104E4000022B12D101221146C42000F059FC48B1B6
:104E500043681B88054842225A430021BDE80840A8
:104E600028F082BD4FF49673F4E708BD754E00003C
:104E70000E0D002070B5044688B020B9204822F0FD
:104E80001DFE08B070BD1F4B1B78ABB3032B33D096
:104E90001EF018F9ADF81E00204622F089FF00260A
:104EA00006700546FFF718FE03785A1C02700821A9
:104EB0006B70AE70E81C28F006FB092128F003FB9C
:104EC0000A2128F000FB01254CF25D23CDE90235D3
:104ED000C4230146CDE900330DF11E0204960223DE
:104EE0002046FFF763FD084840F2BC72294628F0CF
:104EF0003BFDFFF79DFFC4E7204622F06DFEF8E77B
:104F0000754E00000E0D0020DD4D00002DE9F74329
:104F10000022FF210546334828F0EEFE29F07EFCF2
:104F2000804620B1304F3B780BB1032B05D128468A
:104F300003B0BDE8F04322F04FBE4FF00009284611
:104F400022F0B4FE02283AD9284622F0A5FE0446F3
:104F5000A8B38078FFF7E2FDA07008BBE078211DC0
:104F6000FEF700FD061D2846F6B222F09FFE2846F9
:104F700022F09CFE864222D83146284622F056FF77
:104F8000A278002ADBD12388082B0BD101920434AC
:104F9000012200941146C420FEF7F4FFC146CEE77B
:104FA0000326E4E7092BF1D00A2BC8D1019204347F
:104FB000012200941146C420FEF7E4FFBFE7B9F1D7
:104FC000000FB4D0094B002119703B78012BAED1F2
:104FD000022340F2DE3206483B7028F0C5FCFFF7A2
:104FE00027FFA4E7DD4D00000E0D00200C0D002072
:104FF000B54C000038B5054622F04EFE90F84B3017
:10500000044653B901462322104842F02BF81048B9
:10501000282204F1230142F025F80C4CD4F84B006F
:1050200070B194F84F1028F079FB002384F84F30CA
:1050300084F84B3084F84C3084F84D3084F84E308E
:105040002846BDE8384022F0C7BD00BF80AA002036
:10505000A3AA002070B5094CD4F84B3005460E4683
:105060004BB907488F212CF0D7FE18B9C4F84B6014
:1050700084F84F5070BD6FF00300FBE780AA00205A
:10508000F54F00002DE9F04F1B218BB0834622F035
:1050900097FF054690F813A0584622F0FDFDBAF19F
:1050A000150F82780CBF14231B239A4288BF83708C
:1050B0008046FFF711FD407822F07AFE2B7E2A7D94
:1050C000002B14BF04230023002A0CBF0822002257
:1050D0001343044643F0100304F8013B2B7E2BB12D
:1050E0002046B5F8191028F0EEF904466B7D2370C0
:1050F000BAF1150F0CBF16230D236370287BFEF742
:10510000EDFD2B7DB5F80F10002B0CBF0122022204
:10511000FEF71FFF00274368A77041880246E61C80
:1051200000296DD14FF6FD73304602220DF12601A4
:10513000ADF8263041F096FF2123BAF1150F6371C7
:105140004FF0010312BFA61DA371E61DA370FFF768
:10515000C3FC002340780493B5F80F300393B5F8EF
:10516000113002932B7B0193EB7A00936A1C02238C
:105170003146FFF71BFCFFF7AFFC80F801B00BB026
:10518000BDE8F08F1888B8F800C081B28C4535D8DA
:10519000000433D4BAF1150F19D195F818C001F4F1
:1051A0008040BCF1000F10D088B901375188F8B2A7
:1051B0000139814203D998F802C0CC45E2D8814236
:1051C0008CBF00210121A170C1E70028EDD130463C
:1051D000CDE9063228F077F9069B079A9978017095
:1051E000BAF1150F08BFD97809F1010909BF01F01B
:1051F0000301461C4170861C5FFA89F90833D4E725
:10520000B946D3E72DE9F04707460E46904622F00F
:1052100039FC0546002854D0318842463846FEF70E
:10522000E6F9FFF759FCD0F89C30F3B13421284659
:1052300022F0C6FE71680446B078FEF793FBB3789F
:105240004A2B814616D8402B08D9413B0122DBB2BC
:1052500002FA03F340F2872213420DD14A46414637
:1052600004F10C0041F0FEFECCB92846BDE8F04741
:1052700022F0B2BCF12BF1D14946284622F05EFD66
:1052800034218246284622F09BFE04464A46414687
:10529000504641F0E7FE84F80C90C4F810A00023BB
:1052A00023703B7B6370B378A370B7F80F30238112
:1052B00033886381FFF710FCD0F89C30284698476C
:1052C000D3E7BDE8F087000010B507490446FFF7B3
:1052D000C1FE043006D121460448BDE8104000223A
:1052E00028F042BB10BD00BF1B550000C952000092
:1052F00038B5044608464A2811461D4600F29080FB
:10530000072801D8204638BD08384228FAD801A31A
:1053100053F820F0855400008D540000B154000073
:1053200099540000BD540000A5540000C954000069
:10533000E1540000855400000553000005530000AF
:1053400005530000055300000553000005530000FD
:1053500005530000855400008D540000B154000036
:1053600099540000BD540000A5540000C954000029
:10537000E1540000855400008D540000B154000039
:1053800099540000BD540000A5540000C954000009
:10539000E1540000855400008D540000B154000019
:1053A00099540000BD540000A5540000C9540000E9
:1053B000E1540000855400008D54000005530000A6
:1053C000055300000553000005530000055300007D
:1053D000055300008D54000099540000E154000072
:1053E000055300000553000005530000055300005D
:1053F0000553000005530000D5540000D5540000AB
:10540000D55400000553000005530000055300006B
:1054100005530000D554000005530000D55400008A
:1054200000F12003DBB2112B3FF66CAFE0381128FE
:105430003FF668AF01A353F820F000BF9954000075
:1054400099540000995400000553000005530000D2
:105450000553000005530000055300008D54000063
:105460008D540000995400000553000005530000BE
:10547000055300000553000005530000E1540000EF
:10548000ED540000137804F8013B3BE7204602226C
:1054900041F0E8FD023435E72046042241F0E2FD08
:1054A00004342FE72046062241F0DCFD063429E7CC
:1054B0002046032241F0D6FD033423E7204605228F
:1054C00041F0D0FD05341DE72046072241F0CAFD1A
:1054D000073417E720462A4641F0C4FD2C4411E763
:1054E0002046082241F0BEFD08340BE7204610227A
:1054F00041F0B8FD103405E710B5034640680022BE
:1055000000B910BD04888C42FBD05C880132944203
:1055100000F10800F4D80020F3E72DE9F04F1B213B
:105520008FB0074622F04CFD437B0546C3F3401382
:10553000007B0893FEF7D2FB2B7DB5F80F10002BF4
:105540000CBF01220222FEF704FD8146FFF7C4FAD8
:10555000407822F02DFC2B7E2A7D002B14BF0423E3
:105560000023002A0CBF08220022134343F010033B
:1055700000F8013B2B7E1BB1B5F8191027F0A3FFF3
:105580006B7D037001234370841C384622F084FB3A
:105590000990384622F08AFB43080A934FF000082E
:1055A0000A9B5FFA88F1994253D2099B022203EBCE
:1055B00041010DF1360041F055FDBDF83610484669
:1055C000FFF79AFFB5F80F100646B5F81100FFF780
:1055D00081F808B3FFF780FA2146407822F003FCF7
:1055E000C0F5CA6A0AF1010AFEB9BDF836104FF6D5
:1055F000FD73994261D10DF136010222204641F03E
:1056000031FD2123A670E3700121201D27F05BFFEF
:10561000044608F10108C3E7FFF75EFA2146407827
:1056200022F0E1FBC0F1520ADEE77168002944D0A4
:10563000F37813F0400B40D1DA0728D49B073ED50E
:10564000FFF75CFA01280CBF7E268F26BAF1020F05
:1056500039D8FFF741FA089A40780023CDE904329F
:10566000CDE90633B5F80F300393B5F81130029346
:105670002B7B0193EB7A00936A1C02232146FFF7F0
:10568000CAF9FFF729FA47700FB0BDE8F08FB0787C
:10569000FEF768F9011D8A4513D331880B90204627
:1056A00027F011FF80F800B0B1780B9B4170726851
:1056B0009BB20230FFF71CFEAAE78626C6E701264A
:1056C000C4E78926C2E72046BDF8361027F0FBFE66
:1056D000044604F8016B9CE710B51B21044622F038
:1056E0006FFCB0F80F2040F605339A42204603D1F4
:1056F000BDE81040FFF7E8BDBDE81040FFF70DBF63
:1057000013B51C46CDE90021FEF7E8FADDE90021DA
:10571000FEF71FFC214602B0BDE81040FFF7ECBECB
:105720002DE9F04F2DED028B1B218DB0074622F0A5
:1057300047FC0446007BFEF7D1FA237DB4F80F1036
:10574000002B0CBF01220222FEF703FCE37C052B99
:1057500008EE100A7BD0FFF7BFF9407822F028FB53
:10576000237E227D002B14BF04230023002A0CBFBC
:1057700008220022134343F0100300F8013B237E6C
:105780001BB1B4F8191027F09EFE637D037004234B
:105790004370851C384622F07FFA8046384622F056
:1057A00085FA002309900B9301269DF82C300A936B
:1057B000099B032B52D9B8F1000F53D098F802007F
:1057C00008F10301FEF7CEF80330C0B2C146099BD1
:1057D000984200F2F2801B1A80440993B9F1000F3D
:1057E00000F0EB80B9F8001018EE100AFFF784FE05
:1057F0008246002838D14FF6FD73994214BF4FF00E
:10580000860B4FF0880BE27C052A1ED00DB3B4F84E
:105810000F10B4F81100FEF75DFF002860D0FFF70D
:105820005BF92946407822F0DEFAC0F5CA60013003
:10583000022894BF0026012666B12846022200F8FD
:1058400001BB494641F00EFC0335002602E000256D
:10585000A0E72E460B9B01330B93A6E74FF0000900
:10586000FF20B4E7C146FBE74368002B32D08278C3
:1058700099F802309A4230D1237DB4F80F20217B71
:10588000002B09F103030A934FF0010301930A9BD4
:1058900000930CBF01230223FEF702FB834600287E
:1058A000B1D1E37C032BD5D0237DB4F80F10207B3E
:1058B0000022002BBAF8003001920A9A00920CBF25
:1058C00001220222FEF75EFB0A9A51462046FFF7AC
:1058D00099FCBFE74FF0860B95E74FF08D0B92E7F1
:1058E000FFF7FAF82946407822F07DFAC0F152001D
:1058F0009EE70023FF207CE04B46FBE7E37C052B83
:1059000053D02EB10DB30A9BFBB1002305F8013B28
:10591000002F42D0FFF7E0F800234078CDE90633AE
:10592000627BC2F34012CDE90432B4F80F30039326
:10593000B4F811300293237B0193E37A0093621C45
:1059400002232946FFF767F827E0FFF7C5F84078FC
:1059500022F02EFA237D002B0CBF18231023037096
:10596000637D43700B238370E37CC37080230371DA
:105970000546FFF7B1F8002740780497B4F80F30D8
:105980000393B4F811300293237B0193E37A0093DD
:10599000621C0223691DFFF709F8FFF79DF84770A5
:1059A0000DB0BDEC028BBDE8F08F38460DB0BDECFC
:1059B000028BBDE8F04F22F00FB9E37C032B9DD1A1
:1059C000002EA5D0384622F067F98146384622F0ED
:1059D0006DF98246BAF1030F8BD9B9F1000F8BD064
:1059E00099F8020009F10301FDF7BCFF0330C0B2D2
:1059F0004B46504582D88144AAEB000A002B3FF465
:105A00007DAF984618EE100A38F8031BFFF774FDB7
:105A1000237DB4F80F108346002B4FF00002207B4B
:105A2000BBF80030CDE900820CBF01220222FEF754
:105A3000A9FA424659462046FFF7E4FBCAE70000B0
:105A40002DE9F04F1B2189B0804622F0B9FA0546B6
:105A5000FFF742F8407822F0ABF92B7E002B14BF01
:105A60001C23182300F8013B2B7E1BB1B5F819103D
:105A700027F029FD6B7D037009234370841C287B6C
:105A8000FEF72CF92B7D0690002BB5F80F100CBFFC
:105A900001220222FEF75DFA8146404622F006F915
:105AA000022840F2C080404622F0F6F8002800F0BC
:105AB000BA8090F800B0B0F801A00321404622F06F
:105AC000B5F9B5F80F10B5F81100FEF703FE002880
:105AD0003CD0FFF701F82146407822F084F9C0F568
:105AE000CA60013086B2032E40F29D80514648467E
:105AF000FFF702FD0746002800F08A804368002B6C
:105B000000F08680C3785B0740F18980069899F899
:105B10000820B9F800100078534603F0D7FA079030
:105B200000287ED0092E7ED90022227084F801B090
:105B3000A01C514627F0C7FC079B0446BBF1000F91
:105B40000DD0BBF1010FA8D1198A3DE0FEF7C4FFCB
:105B50002146407822F047F9C0F15200C2E7BA78F6
:105B600000F8012B5A8A198A079327F0B8FC0446DB
:105B7000B878FEF799F800288FD0BA78079B203ABA
:105B80000B2A8AD801A151F822F000BFBD5B0000AA
:105B9000C55B0000E15B0000F15B00009B5A000068
:105BA000015C00009B5A00009B5A0000BD5B000096
:105BB000D15B0000E15B0000F15B00001B7D04F89D
:105BC000013B6AE7998A204627F07DFC044664E79A
:105BD0002046022203F1140141F044FA02345CE74A
:105BE0002046032203F1140141F03CFA033454E748
:105BF0002046042203F1140141F034FA04344CE746
:105C00002046062203F1140141F02CFA063444E741
:105C10008623237084F801B05146A01CD4E78C235E
:105C2000F7E78B23F5E7FEF757FF0023407804934F
:105C3000B5F80F300393B5F8113002932B7B019325
:105C4000EB7A00936A1C02232146FEF7AFFEFEF7B3
:105C500043FF80F8018009B0BDE8F08F2DE9F04FD7
:105C60002DED028B1B218DB0074622F0A9F90546C8
:105C7000007BFEF733F82B7DB5F80F10002B0CBF1F
:105C800001220222FEF765F908EE100AFEF724FF52
:105C9000407822F08DF82B7E002B14BF1C23182394
:105CA00000F8013B2B7E1BB1B5F8191027F00BFC57
:105CB0006B7D03704FF0000B0723DFF8F8A14370F2
:105CC000841CD846384621F0F1FF042846D8002627
:105CD0004FF0FF09384621F0E9FF814500F2C1800D
:105CE0004946384622F0A2F8002E00F0BA80B6F8F5
:105CF000011018EE100AFFF7FFFB337808F10108D6
:105D0000002B5DD1002846D14FF6FD7B594514BFCD
:105D10004FF0860B4FF08C0BB5F80F10B5F8110053
:105D2000FEF7D8FC002800F09280FEF7D5FE214651
:105D3000407822F058F8C0F5CA6301339BB2032BB8
:105D400009D984F800B033786370A01CB6F801104C
:105D500027F0B9FB04464FF0010BB3E7384621F0BA
:105D60009BFF06460028B2D00378012B0DD0C078E7
:105D7000FDF79AFF60B1F078FDF78CFF08305FFA0D
:105D800080F9384621F092FFA4E74FF00509A1E71A
:105D90004FF008099EE74368002B4CD08378412BD5
:105DA00049D003F0FD02482A45D0C278520745D5B4
:105DB000F2789A4245D1F38813B1B2889A4243D817
:105DC0002B7B8DF824302A7CEB7B43EA0223ADF851
:105DD0002A30EB7A8DF82530B5F80130ADF8263051
:105DE0006B7CAA7C43EA0223ADF828302B7D002B84
:105DF0000CBF0123022309A930468DF82C3003F093
:105E000031FC00283FF45EAFDAF8002082B9079039
:105E1000FCF78AFA079B014650B9019304230093CB
:105E200040F6120240F2D4434FF0FF3028F070FAEF
:105E30004FF0010B70E74FF0860B6DE74FF08C0BC6
:105E40006AE74FF08D0B67E74FF0870B64E7FEF7CB
:105E500043FE2146407821F0C6FFC0F1520083B2D4
:105E60006DE7B8F1000F1ED1802304F8013BFEF767
:105E700033FE002340780493B5F80F300393B5F850
:105E8000113002932B7B0193EB7A00936A1C02235F
:105E90002146FEF78BFDFEF71FFE47700DB0BDECEF
:105EA000028BBDE8F08FBBF1000FE0D104F801BB1D
:105EB000DDE700BF28C000202DE9F04F8946C388E8
:105EC0000279418889B007464078FFF719FC90F8BD
:105ED00003A0484621F06CFF0AF02005CAF3401ADF
:105EE0004FEA8A0343F0080304460370002D6FD085
:105EF0007878FDF7F3FE3A797988FEF72AF8B0F85A
:105F00000910601C27F0DFFA0446FEF7E5FD037870
:105F10005A1C027023700A2363700234B84640F2A0
:105F2000516BB8F8063098F80420B8F8021098F8C9
:105F30000100FFF7E5FBB8F802100646B8F82C00A0
:105F4000FEF7C8FB214600284CD0484621F04BFF05
:105F5000ABEB000085B27168B078FDF703FDC21CA1
:105F6000954207901FD33188204627F0ACFAB178CC
:105F700000F8011B079B72689BB2FFF7B9F9314625
:105F80000446404603F07CF998F8083023F01603E5
:105F900043F0200388F808305146384603F0ECF807
:105FA00080460028BDD1124B04937B880393BB8DA0
:105FB00002937B78019397F82A30009307F1280227
:105FC000002321464846FEF7F1FC09B0BDE8F08FFA
:105FD000FEF782FD03785A1C027063700A23A370D7
